:0300000002067E77
:0C067E00787FE4F6D8FD7581070206C500
:10022000008040C020A060E0109050D030B070F04E
:10023000088848C828A868E8189858D838B878F8BE
:10024000048444C424A464E4149454D434B474F4EE
:100250000C8C4CCC2CAC6CEC1C9C5CDC3CBC7CFC5E
:10026000028242C222A262E2129252D232B272F2EE
:100270000A8A4ACA2AAA6AEA1A9A5ADA3ABA7AFA5E
:10028000068646C626A666E6169656D636B676F68E
:100290000E8E4ECE2EAE6EEE1E9E5EDE3EBE7EFEFE
:1002A000018141C121A161E1119151D131B171F1BE
:1002B000098949C929A969E9199959D939B979F92E
:1002C000058545C525A565E5159555D535B575F55E
:1002D0000D8D4DCD2DAD6DED1D9D5DDD3DBD7DFDCE
:1002E000038343C323A363E3139353D333B373F35E
:1002F0000B8B4BCB2BAB6BEB1B9B5BDB3BBB7BFBCE
:10030000078747C727A767E7179757D737B777F7FD
:100310000F8F4FCF2FAF6FEF1F9F5FDF3FBF7FFF6D
:100320000702014207030142070401420705014297
:100330000702024207020342070303420704034283
:10034000070503420702044207020542070305426C
:10035000070405420705054201070142010701475D
:100360000107015202070142020701470207015239
:100370000307014203070147030701520407014233
:100380000407014704070152050701420507014719
:1003900005070152040702420407024704070252FC
:1003A00003070342030703470307035202070442FC
:1003B00002070447020704520107054201070547E7
:1003C00001070552020705420207054702070552C9
:1003D00003070542030705470307055204070542C3
:1003E00004070547040705520507054205070547A9
:0C03F00005070552010101010101010196
:1004FE0060C00000FFFFFFFFFFFFFFFFFFFFFFFFDA
:10050E00FFFFFFFFFFFFFFFFFFFFFFFFFFFFFFFFED
:10051E00FFFFFFFFFFFFFFFFFFFFFFFFFFFFFFFFDD
:10052E00FFFFFFFFFFFFFFFFFFFFFFFFFFFFFFFFCD
:10053E00FFFFFFFFFFFFFFFFFFFFFFFFFFFFFFFFBD
:10054E00FFFFFFFFFFFFFFFFFFFFFFFFFFFFFFFFAD
:10055E00FFFFFFFFFFFFFFFFFFFFFFFFFFFFFFFF9D
:10056E00FFFFFFFFFFFFFFFFFFFFFFFFFFFFFFFF8D
:10057E00FFFFFFFFFFFFFFFFFFFFFFFFFFFFFFFF7D
:10058E00FFFFFFFFFFFFFFFFFFFFFFFFFFFFFFFF6D
:10059E00FFFFFFFFFFFFFFFFFFFFFFFF2492492436
:1005AE0092492492492492492492492492492492B0
:1005BE00492492494100C0004100C1004100C200DF
:0F07D7001207C3D2AFD2A912000E12070A80FE7A
:03000B000205CF1C
:1005CF00C0E0C0F0C083C082C0D075D000C000C0F2
:1005DF0001C002C003C004C005C006C007C28C75AD
:1005EF008ACD758CD4D2959000C2E0B40800505BD0
:1005FF00900606F828287302061E02062202062617
:10060F0002062A02063002063602063E02064FC2D4
:10061F00A28010C2A28012C2A28016C2A2D2A18052
:10062F000AD2A2C2A1800CD2A2C2A1D2A08006D2AD
:10063F00A2D2A1C2A012078C9000C2E004F08010D9
:10064F00D2A2D2A1D2A012078C80009000C2E4F0F7
:10065F00D28CC295D007D006D005D004D003D002DB
:0F066F00D001D000D0D0D082D083D0F0D0E032F4
:1007C300438E805389F0438901758A33758C53C2F4
:0407D3008DD28C2215
:10078C00E4FFC2A3C2A4EF7003D38001C392A5D22D
:10079C00A3D2A49000C2E075F018A42400F582E462
:1007AC003400F583E5822FF582E43583F583E0F59B
:0607BC00800FEFB418CC21
:0107C2002214
:10070A00E4FFFEE49000C3F0A3F09000C3E0FCA372
:10071A00E0FDC39418EC64809480505A90000075F0
:10072A00F018EF1204F2EE75F018A42583F583E5AC
:10073A00822DF582E5833CF583E090022093FD90BB
:10074A0000C3E0FAA3E0FB90000075F018EF120472
:10075A00F2EE75F018A42583F583E5822BF582E580
:10076A00833AF583EDF09000C4E004F0709C9000A9
:10077A00C3E004F080940FBF00010EEF64084E70CE
:01078A0082EC
:01078B00224B
:10000E00E49000C4F09000C6F0A3F09000C9F07820
:10001E00CB7C007D017BFF7A0379F4FE7F0812040E
:10002E00CCE49000C3F0E49000CAF09000CAE02443
:10003E00CBF582E43400F5837401F09000CAE0043D
:10004E00F0E0B408E69000C3E025E025E02420F5BA
:10005E0082E43403F583E4939000C0F09000C3E093
:10006E0025E025E02421F582E43403F583E4939022
:10007E0000C1F09000C3E025E025E02422F582E4E3
:10008E003403F583E4939000C2F09000C3E025E0C2
:10009E0025E02423F582E43403F583E4939000C530
:1000AE00F0E024B9600F24F5601324107015E4906D
:1000BE0000C8F0800E9000C87401F080069000C851
:1000CE007402F09000C1E0FF6402702D9000C5E054
:1000DE00B45212EF75F00384FF9000C0E075F00388
:1000EE00A42F0480739000C1E075F00384FF90008C
:1000FE00C0E075F003A42F805F9000C1E0FF64059F
:10010E0070449000C5E0B447047E0180027E0090EA
:10011E0000C5E0B452047D0180027D00ED4E6012F8
:10012E00EF75F00384FF9000C0E075F003A42F0478
:10013E0080129000C1E075F00384FF9000C0E0755E
:10014E00F003A42F80129000C1E075F00384FF909D
:10015E0000C0E075F003A42F9000C4F09000C1E041
:10016E0075F003A45407FF9000C8E02FA3F0E0241D
:10017E00CBF582E43400F583E4F09000CCE075F02A
:10018E0040A4FF9000CBE075F080A42FFF9000CD2F
:10019E00E0C43354E02FFFA3E0C454F02FFFA3E0DC
:1001AE0075F008A42FFFA3E025E025E02FFFA3E0C4
:1001BE0025E02FFFA3E02F9000C7F09000C4E0FFD2
:1001CE009000C2E0FE75F018A42400F582E434001D
:1001DE00F583E5822FF582E43583F583E0FF900009
:1001EE00C7E05FFF9000C4E0FDEE75F018A4240098
:1001FE00F582E43400F583E5822DF582E43583F54E
:10020E0083EFF09000C3E004F0E064356003020079
:01021E0034AB
:01021F0022BC
:10068A000207D7E493A3F8E493A34003F68001F2A8
:10069A0008DFF48029E493A3F85407240CC8C33371
:1006AA00C4540F4420C8834004F456800146F6DF40
:1006BA00E4800B01020408102040809004FEE47ECE
:1006CA00019360BCA3FF543F30E509541FFEE49335
:1006DA00A360010ECF54C025E060A840B8E493A3FC
:1006EA00FAE493A3F8E493A3C8C582C8CAC583CA27
:1006FA00F0A3C8C582C8CAC583CADFE9DEE780BEDF
:0105CE00002C
:1003FC00E709F608DFFA8046E709F208DFFA803EE3
:10040C0088828C83E709F0A3DFFA8032E309F608CF
:10041C00DFFA8078E309F208DFFA807088828C8337
:10042C00E309F0A3DFFA806489828A83E0A3F608EB
:10043C00DFFA805889828A83E0A3F208DFFA804CC5
:10044C0080D280FA80C680D4806980F2803380109C
:10045C0080A680EA809A80A880DA80E280CA803305
:10046C0089828A83ECFAE493A3C8C582C8CCC5837D
:10047C00CCF0A3C8C582C8CCC583CCDFE9DEE7804D
:10048C000D89828A83E493A3F608DFF9ECFAA9F0CC
:10049C00EDFB2289828A83ECFAE0A3C8C582C8CC22
:1004AC00C583CCF0A3C8C582C8CCC583CCDFEADE3B
:1004BC00E880DB89828A83E493A3F208DFF980CC9D
:1004CC0088F0EF60010E4E60C388F0ED2402B40496
:1004DC000050B9F582EB2402B4040050AF2323453D
:0604EC00822390044C7312
:0C04F200A42582F582E5F03583F5832215
:00000001FF
