:030000000200F803
:0C00F800787FE4F6D8FD75813F02013FDF
:1001CB0020300A00DB00B6006D00490092002400CD
:1001DB00B6006D00DB006D00DB00B60024004900AB
:1001EB009200920024004900000000000000000073
:1001FB00000000023E0000023A0000013D00013CFD
:05020B000002080000E4
:10026800C2A1C2A00509E50922C2A1D2A00509E5DB
:02027800092259
:10027A00120256120242D2AFD2A9D2ABD28C80FC61
:03000B0002001ED2
:10001E00C0E0C0F0C083C082C0D075D000C000C0A8
:0D002E0001C002C003C004C005C006C00729
:10003B00758A9A758CA9C28C053BE53B7002053A13
:10004B00E50860030200DDE509B408004003020087
:10005B00DD900063F828287302007B020086020003
:10006B009102009E0200AB0200B60200C10200CE5C
:10007B00C2A2120268705805088054C2A212027103
:10008B00700205088049C2A2D2A112026A70020551
:10009B0008803CC2A2D2A112027370020508802F05
:1000AB00D2A2120268700205088024D2A212027139
:1000BB00700205088019D2A2D2A112026A70020541
:1000CB0008800CD2A2D2A1D2A0750800750900122B
:0200DB0001849E
:1000DD00D007D006D005D004D003D002D001D00077
:0B00ED00D0D0D082D083D0F0D0E03221
:03001B00020211CD
:10021100C0E0C0D0758B66758D7E053BE53B7002F5
:10022100053AC394E8E53A94034011753A00753BE9
:1002310000053CE53C94084003753C00D0D0D0E07B
:01024100328A
:10025600438E805389F0438901758A66758C7EC208
:020266008D22E7
:10024200438E4053890F438910758B66758D7EC22C
:040252008FD28E2297
:10018400E4FFFEC2A3C2A4EF4E7003D38001C39266
:10019400A5D2A3D2A4E53DC394034003E4F53DE511
:1001A4003C75F006A4240AF8E53D25E028F808E6A5
:1001B400F580053D0FBF00010EEF64184E70C4C2F8
:0601C4009512000ED29519
:0101CA002212
:08000E007F167E80DEFEDFFCA0
:0100160022C7
:1001040002027AE493A3F8E493A34003F68001F295
:1001140008DFF48029E493A3F85407240CC8C333FC
:10012400C4540F4420C8834004F456800146F6DFCB
:10013400E4800B01020408102040809001CBE47E8F
:10014400019360BCA3FF543F30E509541FFEE493C0
:10015400A360010ECF54C025E060A840B8E493A387
:10016400FAE493A3F8E493A3C8C582C8CAC583CAB2
:10017400F0A3C8C582C8CAC583CADFE9DEE780BE6A
:0102100000ED
:00000001FF
